:100000000C9434000C9451000C9451000C94510049
:100010000C9451000C9451000C9451000C9451001C
:100020000C9451000C9451000C9451000C94A602B5
:100030000C9451000C9451000C9451000C945100FC
:100040000C9493010C9451000C9451000C945100A9
:100050000C9451000C9451000C9451000C945100DC
:100060000C9451000C94510011241FBECFEFD8E026
:10007000DEBFCDBF12E0A0E0B1E0E2E0F3E102C0FC
:1000800005900D92AE39B107D9F722E0AEE9B2E0A2
:1000900001C01D92A63BB207E1F70E9406040C9432
:1000A0007F090C940000209A8AB1806E8AB987B1CA
:1000B000836087B988B18C6188B95A9A3D9A08954E
:1000C000409A40980895CF93DF931F92CDB7DEB743
:1000D00087FF02C0289A01C0289886FF02C05F9A55
:1000E00001C05F9885FF02C05E9A01C05E9884FFE0
:1000F00002C05D9A01C05D9889830E94600095ED01
:100100009A95F1F70000898183FF02C0289A01C007
:10011000289882FF02C05F9A01C05F9881FF02C0E9
:100120005E9A01C05E9880FF02C05D9A01C05D9832
:100130000F90DF91CF910C946000419A0E94630070
:100140008FE99FE00197F1F700C000000895419802
:100150000E9463008FE99FE00197F1F700C0000063
:10016000089540982FEF89EF90E021508040904013
:10017000E1F700C0000083E30E94A70083E30E9430
:10018000A70082E30E94A70088E20E94A7008CE0FB
:100190000E94A70081E00E94A7002FEF89EF90E066
:1001A000215080409040E1F700C000000895DF92A8
:1001B000EF92FF920F931F93CF93DF937C01D42E86
:1001C000623011F080E801C080EC0E94A7008FE946
:1001D0009FE00197F1F700C000008701E801CE1908
:1001E000DF09F80181918F01882319F00E949D0099
:1001F000F5CFDD2041F0C031D1052CF480E20E9422
:100200009D002196F8CFDF91CF911F910F91FF9024
:10021000EF90DF9008950F931F93CF93DF93CDB7A7
:10022000DEB7A8970FB6F894DEBF0FBECDBF8C0126
:100230001F938F9384E191E09F938F930E946106B7
:100240005C988FE39CE90197F1F700C00000C801BA
:100250000E94A20368E270E08E010F5F1F4FC80189
:100260000E94B7035C9A8FE39CE90197F1F700C005
:1002700000001F930F9380E291E09F938F930E9461
:1002800061060FB6F894DEBF0FBECDBFA8960FB6BD
:10029000F894DEBF0FBECDBFDF91CF911F910F91BC
:1002A00008955C988FE39CE90197F1F700C0000086
:1002B0008FE291E00E94A2038FE39CE90197F1F79E
:1002C00000C000005C9A089593E890937A008093B0
:1002D0007C0080917C00806C80937C0080917A000F
:1002E000806480937A0080917A0086FDFCCF8091B3
:1002F0007A00806480937A0080917A0086FDFCCF3A
:1003000080917A008F7780937A0080917800909125
:100310007900089516BC14BC83E085BD81E080930C
:100320006E00789408951F920F920FB60F921124C9
:100330000F931F932F933F934F935F936F937F93ED
:100340008F939F93AF93BF9380919E0290919F0252
:10035000181619060CF06AC0019790939F028093BB
:100360009E028091A8029091A902409100015091B3
:10037000010160910201709103010197C9F580911B
:10038000A2029091A302092E000CAA0BBB0B8417AA
:100390009507A607B7074CF01092A9021092A80281
:1003A0001092A3021092A20241C08091A6029091E5
:1003B000A7022091040130910501821793074CF0A8
:1003C00098B180E2892788B91092A7021092A602FC
:1003D00005C001969093A7028093A6028091A20285
:1003E0009091A30201969093A3028093A2021EC053
:1003F0008091A4029091A5028C01092E000C220B81
:10040000330B04171507260737075CF081E090E0EF
:100410009093A9028093A8021092A5021092A402C0
:1004200005C001969093A5028093A402BF91AF915D
:100430009F918F917F916F915F914F913F912F91FC
:100440001F910F910F900FBE0F901F90189586E08F
:1004500091E09093B3028093B202519A5098109217
:10046000C50080E18093C400E1ECF0E08081886009
:10047000808380818061808386E08093C200E0EC8D
:10048000F0E080818260808308959091C00095FFA4
:10049000FCCF8093C6000895CF93C82F8A3019F4FB
:1004A0008DE00E9445028C2F0E94450280E090E082
:1004B000CF9108958091C00087FFFCCF8091C60046
:1004C00008958091C000881F8827881F0895CF93C2
:1004D000DF93EC018991882319F00E944502FACF3D
:1004E000DF91CF910895CF92DF92EF92FF920F9319
:1004F0001F93CF93DF931F92CDB7DEB78C01C12C32
:10050000D12C7B0181E0E81AF1080E945A02982F51
:1005100099830E9445029981F8019A3059F09D30E3
:1005200049F091938F01FFEFCF1ADF0ACE14DF0459
:1005300061F7F8011082C6010F90DF91CF911F91F2
:100540000F91FF90EF90DF90CF9008951F920F9240
:100550000FB60F9211248F939F93809188009091F2
:1005600089008F529F4F90938900809388008091DB
:10057000AF02882329F08091AF028F5F8093AF0292
:100580008091AE02882329F08091AE028F5F809324
:10059000AE028091AF028432B1F190F48C3041F11F
:1005A00028F48823D1F08430F1F053C0843139F13C
:1005B0008C3109F04EC083B19091AC0284703AC086
:1005C0008C3369F128F48C3211F1843321F141C06C
:1005D000843449F18C3491F13CC01A993AC081E0DD
:1005E0008093AF0236C01A9932C01092AC0231C06B
:1005F00083B19091AC0282FB882780F91BC01A9BC3
:1006000014C082E015C01A9B10C088E011C01A9B6C
:100610000CC080E10DC01A9B08C080E209C01A9B83
:1006200004C080E405C01A9902C080E001C080E8DF
:100630009091AC02892B8093AC020BC01A9B07C02F
:100640008091AC028093AB0281E08093AD02109266
:10065000AF028091AE028A3289F168F48231F9F0FA
:1006600028F48230F1F18A30A9F03EC08A31E1F0FD
:100670008232F9F039C0823481F128F4823319F1E1
:100680008A3331F131C08A3471F1823569F51092C3
:10069000AE022AC08091AA0280FF23C024C08091AC
:1006A000AA0281FF1EC01FC08091AA0282FF19C04A
:1006B0001AC08091AA0283FF14C015C08091AA02BB
:1006C00084FF0FC010C08091AA0285FF0AC00BC032
:1006D0008091AA0286FF05C006C08091AA0287FD0C
:1006E00002C0299801C0299A9F918F910F900FBE47
:1006F0000F901F9018951092AF021092AE021092B8
:10070000AD021092AC021092AB021092AA020895B0
:10071000219A299A549A5C9AE1E8F0E080818160FC
:100720008083EFE6F0E08081826080837894089592
:100730009091AE029111FCCF8093AA0281E0809348
:10074000AE020895CF93DF93EC018991882319F0CD
:100750000E949803FACFDF91CF9108958091AD0266
:100760008130E1F71092AD028091AB020895EF92D3
:10077000FF920F931F93CF93DF937C01EC018B01CA
:10078000015011090E94AE038A3041F41882DF91B2
:10079000CF911F910F91FF90EF9008959E012E1918
:1007A0003F092017310791F38993ECCFEF92FF9225
:1007B0000F931F93CF93DF937C01EC018B010150CA
:1007C000110924E630E08091AD02813029F40E94C5
:1007D000AE038A3099F403C02150310941F41882E4
:1007E000DF91CF911F910F91FF90EF9008958FE8C7
:1007F00091E00197F1F700C00000E5CF9E012E19AE
:100800003F092017310759F38993DBCFCF93DF934B
:10081000CDB7DEB76B970FB6F894DEBF0FBECDBF76
:100820000E9453000E94B1000E948A010E94270288
:100830000E9488032FEF89E698E121508040904084
:10084000E1F700C000008DE391E00E9477060E946E
:1008500051018DE591E00E940B0186E691E00E9436
:100860000B0180E791E00E940B018AE791E00E9472
:100870000B0184E891E00E940B018DE891E00E9459
:100880000B0187E991E00E940B0181EA91E00E944F
:100890000B018FEA91E00E940B0110E0812C912C5A
:1008A0005E01A2E1AA0EB11CFE0131963F017E015C
:1008B000F6E1EF0EF11C9CE2292E33243394412CF7
:1008C000512C82E00E9464019B8F8A8F83E00E94FA
:1008D00064016C014A9959C08BEB91E00E94A2031C
:1008E0008DEB91E00E94A20380EC91E00E947706DC
:1008F0002FEF80E792E0215080409040E1F700C068
:1009000000008DEA9DE02091AD02211109C0019700
:1009100039F0AFE8B1E01197F1F700C00000F3CF74
:100920008091AD02882301F10E94AE03813221F54E
:1009300063E070E0C5010E94D603BF92AF920E94AF
:10094000610667EC71E0C5010E9458060F900F9098
:10095000892B79F06AEC71E0C5010E945806892B59
:1009600059F4812C912C08C08DEC91E00E947706FF
:1009700003C088248394912CBFEFE1EEF4E0B150E2
:10098000E040F040E1F700C0000034990CC08BEB70
:1009900091E00E94A2038AED91E00E94A2038AEDF9
:1009A00091E00E9477068BEB91E00E94A2038A8D72
:1009B0009B8D8D3B9240A8F1BDEBCB16B2E0DB06E0
:1009C00068F08DED91E00E94A20380EE91E00E941C
:1009D000770641E062E084EE91E011C0ECE2CE16D1
:1009E000E1E0DE0688F48EEE91E00E94A20381EF42
:1009F00091E00E94770641E062E085EF91E00E947D
:100A0000D7008BEF90E07CC080E092E00E94A203D0
:100A100083E092E00E94770641E062E087E092E0A6
:100A2000EECF8A8D9B8D8C32914088F5BDEBCB1635
:100A3000B2E0DB0668F08CE092E00E94A2038FE057
:100A400092E00E94770641E062E083E192E0D7CF36
:100A5000ECE2CE16E1E0DE0668F480E292E00E946D
:100A6000A20383E292E00E94770641E062E087E21F
:100A700092E0C5CF85E392E00E94A20388E392E072
:100A80000E94770641E062E08CE392E0B8CFFDEB94
:100A9000CF16F2E0DF0668F084E492E00E94A20341
:100AA00087E492E00E94770641E062E08BE492E006
:100AB000A6CF2CE2C21621E0D20668F485E592E0CA
:100AC0000E94A20388E592E00E94770641E062E07E
:100AD0008CE592E094CF87E692E00E94A2038AE63A
:100AE00092E00E94770641E062E08EE692E087CFD6
:100AF000019751F0AFE8B1E01197F1F700C00000A5
:100B00002091AD022223A1F38091AD02882309F444
:100B10009CC00E94AE03813209F098C063E070E08F
:100B2000C7010E94B703FF92EF920E94610663E73C
:100B300072E0C7010E9458060F900F90892B81F434
:100B40002092000130920101409202015092030173
:100B500084EF91E090939F0280939E0211E06DC01C
:100B600066E772E0C7010E945806892BA1F48AEF5C
:100B700090E0A0E0B0E08093000190930101A09389
:100B80000201B093030184EF91E090939F02809360
:100B90009E0212E052C069E772E0C7010E94580647
:100BA000892BA1F488EC90E0A0E0B0E080930001F4
:100BB00090930101A0930201B093030184EF91E0AF
:100BC00090939F0280939E0213E037C06CE772E01F
:100BD000C7010E945806892BA1F486E990E0A0E0A5
:100BE000B0E08093000190930101A0930201B093C3
:100BF000030184EF91E090939F0280939E0214E0A2
:100C00001CC06FE772E0C7010E945806892BA1F44F
:100C100084E690E0A0E0B0E08093000190930101B1
:100C2000A0930201B093030184EF91E090939F029F
:100C300080939E0215E001C010E06AEC71E0C701EC
:100C40000E945806892BB1F001C010E08114910474
:100C500089F01F921F9382E892E09F938F937F9277
:100C60006F920E94A7060F900F900F900F900F9019
:100C70000F9012C01F921F93AFE8B2E0BF93AF93E3
:100C80007F926F920E94A7060F900F900F900F9087
:100C90000F900F90812C912C41E061E0C3010E94E4
:100CA000D7008FE19EE40197F1F700C0000009CE64
:100CB000FB01DC018D91019080190110D9F3990B92
:100CC0000895A0E0B0E0E7E6F6E00C945809AE0124
:100CD0004B5F5F4FFA0161917191AF018091B20258
:100CE0009091B3020E94CA06E2E00C9474090F933B
:100CF0001F93CF93DF93E091B202F091B30223816F
:100D000021FF1BC08C01D0E0C0E0F80181918F0170
:100D10006091B2027091B302DB011896ED91FC91E3
:100D20001997882331F00995892B79F3DFEFCFEFFD
:100D3000ECCF8AE00995892B19F08FEF9FEF02C065
:100D40008D2F9C2FDF91CF911F910F910895AEE0D1
:100D5000B0E0EDEAF6E00C9456090D891E8986E0B4
:100D60008C831A8309838FEF9FE79E838D83AE0167
:100D7000475E5F4F6F89788DCE0101960E94CA064B
:100D80002F813885F801E20FF31F10822E96E4E0E0
:100D90000C947209ACE0B0E0E0EDF6E00C94480988
:100DA0007C016B018A01FC0117821682838181FF1D
:100DB000BDC1CE0101964C01F7019381F60193FD6F
:100DC000859193FF81916F01882309F4ABC185322E
:100DD00039F493FD859193FF81916F01853229F458
:100DE000B70190E00E94B208E7CF512C312C20E0EF
:100DF0002032A0F48B3269F030F4803259F0833223
:100E000069F420612CC08D3239F0803339F42160CF
:100E100026C02260246023C0286021C027FD27C08F
:100E200030ED380F3A3078F426FF06C0FAE05F9EC6
:100E3000300D1124532E13C08AE0389E300D11243A
:100E4000332E20620CC08E3221F426FD6BC120644B
:100E500006C08C3611F4206802C0883641F4F601D1
:100E600093FD859193FF81916F018111C1CF982FDF
:100E70009F7D9554933028F40C5F1F4FFFE3F98357
:100E80000DC0833631F0833771F0833509F05BC0D4
:100E900022C0F801808189830E5F1F4F4424439450
:100EA000512C540115C03801F2E06F0E711CF8018D
:100EB000A080B18026FF03C0652D70E002C06FEFF7
:100EC0007FEFC5012C870E94A7082C0183012C8588
:100ED0002F77222E17C03801F2E06F0E711CF80137
:100EE000A080B18026FF03C0652D70E002C06FEFC7
:100EF0007FEFC5012C870E949C082C012C8520685F
:100F0000222E830123FC1BC0832D90E04816590636
:100F1000B0F4B70180E290E00E94B2083A94F4CFB6
:100F2000F50127FC859127FE81915F01B70190E0D3
:100F30000E94B20831103A94F1E04F1A510841145E
:100F4000510471F7E5C0843611F0893639F5F8019E
:100F500027FF07C060817181828193810C5F1F4FE1
:100F600008C060817181072E000C880B990B0E5F01
:100F70001F4F2F76722E97FF09C090958095709520
:100F800061957F4F8F4F9F4F2068722E2AE030E08F
:100F9000A4010E94EA08A82EA81844C0853729F4A5
:100FA0002F7EB22E2AE030E025C0F22FF97FBF2E2F
:100FB0008F36C1F018F4883579F0B4C0803719F055
:100FC000883721F0AFC02F2F2061B22EB4FE0DC0A4
:100FD0008B2D8460B82E09C024FF0AC09F2F966015
:100FE000B92E06C028E030E005C020E130E002C0A4
:100FF00020E132E0F801B7FE07C060817181828193
:1010000093810C5F1F4F06C06081718180E090E08A
:101010000E5F1F4FA4010E94EA08A82EA818FB2DFE
:10102000FF777F2E76FE0BC0372D3E7FA51450F440
:1010300074FE0AC072FC08C0372D3E7E05C0BA2C73
:10104000372D03C0BA2C01C0B52C34FF0DC0FE01F2
:10105000EA0DF11D8081803311F4397E09C032FF21
:1010600006C0B394B39404C0832F867809F0B39478
:1010700033FD13C030FF06C05A2CB31418F4530CC0
:101080005B18B32CB31468F4B70180E290E03C879E
:101090000E94B208B3943C85F5CFB31410F43B180A
:1010A00001C0312C34FF12C0B70180E390E03C87CF
:1010B0000E94B2083C8532FF17C031FD03C088E7AB
:1010C00090E002C088E590E0B7010CC0832F8678DD
:1010D00059F031FF02C08BE201C080E237FD8DE2A2
:1010E000B70190E00E94B208A51438F4B70180E37C
:1010F00090E00E94B2085A94F7CFAA94F401EA0D46
:10110000F11D8081B70190E00E94B208A110F5CFD7
:10111000332009F451CEB70180E290E00E94B2087A
:101120003A94F6CFF7018681978102C08FEF9FEF47
:101130002C96E2E10C946409FC010590615070402A
:101140000110D8F7809590958E0F9F1F0895FC0190
:101150006150704001900110D8F7809590958E0FE6
:101160009F1F08950F931F93CF93DF93FB0123815C
:1011700021FD03C08FEF9FEF28C022FF16C04681DC
:101180005781248135814217530744F4A081B181EE
:101190009D012F5F3F4F318320838C9326813781C0
:1011A0002F5F3F4F3783268310C0EB01092F182F85
:1011B0000084F185E02D0995892BE1F68E819F81D0
:1011C00001969F838E83812F902FDF91CF911F9166
:1011D0000F910895FA01AA27283051F1203181F1A9
:1011E000E8946F936E7F6E5F7F4F8F4F9F4FAF4F2F
:1011F000B1E03ED0B4E03CD0670F781F891F9A1F42
:10120000A11D680F791F8A1F911DA11D6A0F711DF5
:10121000811D911DA11D20D009F468943F912AE001
:10122000269F11243019305D3193DEF6CF010895E9
:10123000462F4770405D4193B3E00FD0C9F7F6CF1A
:10124000462F4F70405D4A3318F0495D31FD4052E2
:10125000419302D0A9F7EACFB4E0A6959795879578
:1012600077956795BA95C9F7009761057105089557
:101270009B01AC010A2E0694579547953795279503
:10128000BA95C9F7620F731F841F951FA01D08959B
:101290002F923F924F925F926F927F928F929F9286
:1012A000AF92BF92CF92DF92EF92FF920F931F9374
:1012B000CF93DF93CDB7DEB7CA1BDB0B0FB6F89425
:1012C000DEBF0FBECDBF09942A88398848885F8465
:1012D0006E847D848C849B84AA84B984C884DF80D6
:1012E000EE80FD800C811B81AA81B981CE0FD11DBA
:1012F0000FB6F894DEBF0FBECDBFED010895F89490
:02130000FFCF1D
:101302002C010000010000000002000000004C025D
:1013120000000000436F6D6D616E643A202573001A
:10132200526573706F6E73653A2025730D0A004122
:10133200542B44564944303030300D0A000D0A41D6
:10134200544D656761333238204A44592D34302078
:101352004D617374657220546573740D0041542B92
:101362005645520D0A0041542B424155440D0A0084
:1013720041542B524649440D0A0041542B445649CC
:10138200440D0A0041542B5246430D0A0041542B8E
:10139200504F57450D0A0041542B434C53530D0AED
:1013A2000041542B44564944414241420D0A0041F6
:1013B200542B5246433034340D0A002100544F005E
:1013C200746F67676C65005444005446004E4F20AA
:1013D200524553504F4E53450D00505500424C005C
:1013E200424C0D004261636B204C656674004252B0
:1013F2000042520D004261636B20526967687400BB
:10140200424E00424E0D004261636B00464C004664
:101412004C0D00466F7277617264204C65667400F1
:1014220046520046520D00466F7277617264205236
:101432006967687400464E00464E0D00466F72772B
:1014420061726400484C00484C0D0048617264208F
:101452004C6566740048520048520D00486172643F
:101462002052696768740053540053540D0053743A
:101472006F70004449005155004E490054570044D2
:101482004F00546F67676C65204F6E2025640054CF
:0E1492006F67676C65204F666620256400005A
:00000001FF
